:020000040000FA
:040000008FEF08F086
:08000800056ED8CF06F0E0CF31
:1000100007F00001E9CF0DF0EACF08F0E1CF09F0D9
:10002000E2CF0AF0D9CF0BF0DACF0CF0F3CF14F017
:10003000F4CF15F0FACF16F000C00FF001C010F0A9
:1000400002C011F003C012F004C013F0A0AA2CEFFC
:1000500000F0A1BA71EF05F00FC000F010C001F080
:1000600011C002F012C003F013C004F00DC0E9FF8C
:1000700008C0EAFF088E09C0E1FF0AC0E2FF0BC01A
:10008000D9FF0CC0DAFF14C0F3FF15C0F4FF16C08F
:10009000FAFF055007C0E0FF06C0D8FF1000F76A5E
:1000A000AE0FF66E000EF7220900F55012000401A3
:1000B000000000000000000000000000000008AE8A
:1000C00003D0F2CF0EF0F29EF76AE00FF66E000E4C
:1000D000F7220900F55008AE02D00EBEF28E1200D3
:1000E00040000A00000000000000000000000000C6
:1000F0000000000000000000000000000000000000
:10010000F76A100FF66E010EF7220900F550120083
:100110000902200001010080320904000002FFFFF3
:10012000FF00070581010A0001070501010A00011E
:10013000F76A400FF66E010EF7220900F550120023
:100140000100F76A520FF66E010EF7220900F55012
:1001500012001201100100000040D8040B00000141
:1001600001020001F76A740FF66E010EF722090012
:10017000F550120000040C00F76A880FF66E010EAD
:10018000F7220900F5501200040309040803430094
:10019000430053001C03440061006E0074006500BE
:1001A00020004D00690067006F006E0069002000AC
:1001B0006D92699468947CEF05F06A6A689285EFA5
:1001C00005F0546A54520AE1036A5450240FE96E50
:1001D000000E0320EA6EEF6A542AF4D71A6A010E61
:1001E0001B6E196A000C010E5D6E5D500F080EE368
:1001F000700E5D24016E0F0E036ED8B0032A01C08D
:10020000E9FF03C0EAFFEF6A5D2AEFD71E6A1D6AA5
:10021000000C400E0401016F050E036F026B880E87
:10022000006F046B050E076F400E066F0001000C97
:100230006A6A686A9F0E6B6E390E696E6E6AC1DFFC
:10024000D2DF160E706E68A602D06896FCD76D9845
:10025000E0DF030E1F6E8BEF05F0698468986D82F6
:1002600091EF05F0689C97EF05F070A002D0D1DF08
:100270007090689A9DEF05F058C020F0000CFF0EBA
:10028000206E000C566A235235E056503F0832E388
:100290001C5005E0020A0DE0010A15E01ED0036AB9
:1002A0002250F2CF58F0F29E2BDF58BEF28E576EDE
:1002B00014D0036A2250F2CF58F0F29E5DDF58BE90
:1002C000F28E576E0AD0036A2250F2CF58F0F29E97
:1002D00038DF58BEF28E576E00D0222A23065650C1
:1002E000562A036A400FE96E050E0320EA6E57C0D6
:1002F000EFFFC9D7235204E15650400801E0196AC4
:1003000056C058F0B9DF000C226A1C6A050103517F
:10031000010A000105E0030A08E0010A09E01FD014
:10032000120E236E030E1C6E1CD0200E236E19D0ED
:10033000020E1C6E036A05010251F2CF55F0F29EC7
:10034000000110DF55BEF28E226E036A2250F2CFFA
:1003500055F0F29E11DF55BEF28E236E02D08FDF74
:100360000CD00501075305E12350065D02E206C5E6
:1003700023F0010E196E000185DFD7EF02F0555210
:1003800004E1040E1F6E2FDFC1D0050E1F6E586EE4
:10039000800E576E010E566E56500F08D8A0B6D07C
:1003A000596A036A5650F2CF5DF0F29E78DE5DBE68
:1003B000F28E000A51E0040E596ED8905634036A4A
:1003C000F2CF5DF0F29E7BDE0900F5CF03F05DBE5B
:1003D000F28E5A6E03C05BF05650080DF350010FB9
:1003E000016E040E036ED8B0032A01C0E9FF03C0FA
:1003F000EAFF5AC0EFFF5650080DF350020F016E8E
:10040000040E036ED8B0032A01C0E9FF03C0EAFF5F
:1004100058C0ECFFED5257C0EFFFD8905634036A36
:10042000F2CF5DF0F29E4BDE0900F5CF03F05DBE2A
:10043000F28E572603505822880E5C6E5BB05C80AB
:100440005BB25C825650080DF3CF01F0040E01C080
:10045000E9FFEA6E5CC0EFFF036A5650F2CF5DF031
:10046000F29E1DDE5DBEF28E000A31E059825650CA
:10047000080DF350060F016E040E036ED8B0032A68
:1004800001C0E9FF03C0EAFF58C0ECFFED5257C0BE
:10049000EFFFD8905634036AF2CF5DF0F29E0FDE84
:1004A0000900F5CF03F05DBEF28E572603505822A7
:1004B0005650080DF350040F016E040E036ED8B0B1
:1004C000032A01C0E9FF03C0EAFF400EEF6E595056
:1004D000060802E10E0E596E036A5650F2CF5DF027
:1004E000F29EDDDD5DBEF28E020801E05988700EDD
:1004F0005624016E0F0E036ED8B0032A01C0E9FF27
:1005000003C0EAFF59C0EFFF562A46D7D1EF02F0E9
:100510000501015100010DE0010A14E0020A1EE08C
:10052000060A27E0030A2CE00E0A2BE0010A2FE05E
:100530003CD01BC040F50501416B020E586E000116
:100540009BDE35D00501022D06D0010E1B16586A20
:10055000000192DE02D0000192DE29D00501022DB9
:1005600005D01B82586A000187DE02D0000187DEB9
:100570001ED0020E196E02C521F0586A7DDE17D01A
:10058000C3D61AC040F5010E586E76DE10D00501B4
:100590000251010808E302C51AF002C555F0000136
:1005A000EED6586A69DE000102D069DE00D0F8EFAD
:1005B00003F01AC055F005010151000105E00A0AD7
:1005C0000BE0010A2BE03CD00501406B416B020EB1
:1005D000586E000151DE36D055521EE0010E555CBA
:1005E000036AF2CF57F0F29EA3DD57BEF28E016E82
:1005F0000501045DD8A002D000010ED0036A0451A9
:10060000240FE96E000E0320EA6EEFCF40F5010ED5
:10061000586E000131DE01D032DE14D055520EE0AA
:10062000036A05010451240FE96E000E0320EA6EEF
:1006300002C5EFFF586A00011FDE01D020DE02D0A4
:100640001EDE00D0F8EF03F0569055BE5680559E42
:1006500056A010D0036A5550F2CF57F0F29E1FDD1E
:1006600057BEF28E000A02E1000E01D0010E016EAB
:1006700010D00FD0036A5550F2CF57F0F29E0FDD25
:1006800057BEF28E000A02E1000E01D0010E016E8B
:1006900000D0BBEF03F0569055BE5680559E56A035
:1006A00010D05550080DF350040F016E040E036E68
:1006B000D8B0032A01C0E9FF03C0EAFF880EEF6E3D
:1006C00009D05550080DF3CF01F0040E01C0E9FF29
:1006D000EA6EEF6ACAEF03F0569055BE5680559EFB
:1006E00056A010D05550080DF350040F016E040EA3
:1006F000036ED8B0032A01C0E9FF03C0EAFF840EED
:10070000EF6E0AD05550080DF3CF01F0040E01C072
:10071000E9FFEA6E840EEF6ED0EF03F0569055BEFF
:100720005680559E56A010D05550080DF350040F1A
:10073000016E040E036ED8B0032A01C0E9FF03C0A6
:10074000EAFFEFCF57F00AD05550080DF3CF01F074
:10075000040E01C0E9FFEA6EEFCF57F057AE02D0AA
:1007600057B402D0000E01D0010E016EDAEF03F093
:1007700004C555F069D7015229E005010151010A6C
:10078000000105E0020A09E0030A0DE01DD004C5DE
:1007900055F081D7586A70DD19D004C555F09CD743
:1007A000586A6ADD13D00501406B416B04C555F0F2
:1007B0000001B4D7015204E0010E0501406F0001B1
:1007C000020E586E59DD02D05ADD00D0F8EF03F06A
:1007D000196A050100517F0B000105E0010A04E0E0
:1007E000030A03E003D094D6E4D6C2D748DD00D094
:1007F0001CEF05F05550080DF3CF01F0040E01C0B9
:10080000E9FFEA6EEFCF57F05650020806E157AC09
:1008100002D0566A02D0010E566E5650030812E1FD
:10082000840E576E5550080DF350040F016E040EE0
:10083000036ED8B0032A01C0E9FF03C0EAFF840EAB
:10084000EF6E09D0562C03D0C80E576E04D0565206
:1008500002E1880E576E036A010E026E5550006E5B
:1008600005E0D89002360336002EFBD70250FF0A6F
:10087000006EFF0E031A00501D1603501E16D8906E
:100880005534036AF2CF5AF0F29E19DC0900F5CF15
:1008900003F05ABEF28E586E03C059F05550080D41
:1008A000F350010F016E040E036ED8B0032A01C08D
:1008B000E9FF03C0EAFF58C0EFFF59B0578059B2B3
:1008C00057825550080DF3CF01F0040E01C0E9FF27
:1008D000EA6E57C0EFFF000C5550080DF350040F9F
:1008E000016E040E036ED8B0032A01C0E9FF03C0F5
:1008F000EAFFEFCF59F059BE5BD05550080DF350C9
:10090000050F016E040E036ED8B0032A01C0E9FF83
:1009100003C0EAFF56C0EFFF5850020816E15550D9
:10092000080DF350040F016E040E036ED8B0032AB5
:1009300001C0E9FF03C0EAFFEFCF59F059AC02D084
:10094000586A02D0010E586E13D05850040810E1B6
:100950005550080DF3CF01F0040E01C0E9FFEA6E17
:10096000EFCF59F059AC03D0010E586E01D0586A40
:10097000582C03D0C80E596E04D0585202E1880E8C
:10098000596E57B0598057B259825550080DF350DF
:10099000040F016E040E036ED8B0032A01C0E9FFF4
:1009A00003C0EAFF59C0EFFF010E016E03D000D073
:1009B000000E016E000C555202E12BDC0FD0036AD1
:1009C000010E026E5550006E05E0D89002360336D7
:1009D000002EFBD702501D1203501E12000C56C0F1
:1009E0006EFF565203E0040E1F6E02D0020E1F6E01
:1009F000FFEF04F01A6A196A21C056F0F0D70BEF26
:100A000005F0555208E1192C02D03CDC04D01950F5
:100A1000020801E1EFD7000C6C30546E54325432AE
:100A20001F0E54166C523BE1040100513C0B34087C
:100A30001BE1046B0001CCD6203C05D0556A030EA7
:100A4000566ED8DE0ED0556A020E566ED3DE20509A
:100A5000FE0807E0556A576A20C056F0040E586E2B
:100A60003BDF6D9819D0040100513C0B040815E1DF
:100A7000556A0001A0DF556A020E566EBBDE20509B
:100A8000FE080AE0203C01D007D0556A576A20C012
:100A900056F0010E586E20DF040120D000016C508A
:100AA000040812E1FF0E206E556AABDF203C01D036
:100AB00008D0556A576A20C056F0020E586E0CDFF7
:100AC00002D009EC01F009D06CB404D054C055F048
:100AD00072DF03D054C055F094DF04010001A2EF8F
:100AE00005F01F5201E12FD068522DE068A404D018
:100AF00069A402D0D8EF00F06DA201D024D068A282
:100B000004D069A202D0DDEF00F068A004D069A093
:100B100002D018EF01F068A804D069A802D02DEF28
:100B200001F068AC04D069AC02D032EF01F068AAE1
:100B300004D069AA02D035EF01F068A604D069A6F6
:100B400002D06AD76896A19A2CEF00F06D6A696AA4
:100B5000080E6F6E94503009946E1F6A186AF2BEC8
:100B6000188EF29EE1EC00F018BEF28E1E6A1D6A2D
:100B7000DDEF05F0186AF2BE188EF29EE1EC00F08F
:100B800018BEF28E6D6A140E6F6E696A6D86010E64
:100B90001F6ECEEF05F06DB601D0ECD71F2C0BD039
:100BA0006DBA09D0686A696AA08AC00EF212110E85
:100BB000696E020E1F6E000CC9D7EDDF1F500208D0
:100BC000FCE1ADEF08F01A5202E10400FCD7AFEFF0
:100BD00008F04550080DF350020F016E040E036E2D
:100BE000D8B0032A01C0E9FF03C0EAFFECCF03F04D
:100BF000ED52EFCF4AF003C04BF04550080DF350D3
:100C0000010F016E040E036ED8B0032A01C0E9FF84
:100C100003C0EAFFEF50036A4D6E03C04EF045502B
:100C2000080DF3CF01F0040E01C0E9FFEA6EEFCF2B
:100C30004CF04CB04E804CB24E824E50495C08E3B2
:100C400003E148504D5C04E24EC049F04DC048F00D
:100C50004E6A4D6A4E50495C1AE303E148504D5CC0
:100C600016E24AC0E9FF4BC0EAFFEFCF51F047C0A0
:100C7000EAFF46C0E9FF51C0EFFF462AD8B4472A31
:100C80004A2AD8B44B2A4D2AD8B44E2AE3D748C0B2
:100C900001F049C002F058EF06F040C045F042C0F4
:100CA00047F041C046F044C049F043C048F091D7F6
:100CB00002C044F001C043F0186AF2BE188EF29EE2
:100CC00040C055F0020E566E95DD18BEF28E43C040
:100CD00001F044C002F0BDEF08F04F505102F3CFD5
:100CE00001F0F4CF00F05202F350002650505102B0
:100CF000F3500020026EEEEF06F04D6A4B6A0A0ECA
:100D00004C6E4A6A496A4750481004E1000E016E71
:100D1000026EE6D04D504D2A036A4724E96E4850D2
:100D20000320EA6EEFCF4EF04E502D080DE1010E7C
:100D30004B6E4D504D2A036A4724E96E48500320FC
:100D4000EA6EEFCF4EF00DD04E502B080AE14D5019
:100D50004D2A036A4724E96E48500320EA6EEFCF1C
:100D60004EF04E502F08D8B0ADD04E503908D8A014
:100D7000A9D04E50300821E1036A4D504724E96E56
:100D800048500320EA6EEF5078080AE0036A4D509D
:100D90004724E96E48500320EA6EEF5058080DE1F1
:100DA000100E4C6E4D2A4D504D2A036A4724E96EB1
:100DB00048500320EA6EEFCF4EF04C500A0821E174
:100DC0004E502F081DE24E5039081AE3506A0A0EA1
:100DD0004F6E4AC052F049C051F07FD7300E4E5C82
:100DE0000124496E000E02204A6E4D504D2A036ABE
:100DF0004724E96E48500320EA6EEFCF4EF0E0D76B
:100E000061D04C5010085EE14E50600806E24E5032
:100E10007A0803E34E50DF0B01D04E504E6E4E5019
:100E20002F0803E24E50390806E24E5040084AE2CD
:100E30004E50460847E34E502F0819E24E503908ED
:100E400016E349344F6E4A34506E4F3650364F36A3
:100E500050364F365036F00E4F16300E4E5C4F2443
:100E6000016E000E502001C049F04A6E16D0493480
:100E70004F6E4A34506E4F3650364F3650364F36DE
:100E80005036F00E4F16410E4E5C0A0F4F24016E85
:100E9000000E502001C049F04A6E4D504D2A036AA1
:100EA0004724E96E48500320EA6EEF504E6E60080A
:100EB00006E24E507A0803E34E50DF0B01D04E504D
:100EC0004E6EADD74C500A0807E14B2C05D0491E99
:100ED0004A1E492AD8B44A2A49C001F04AC002F041
:100EE00098EF07F0020E446E446E445005081AE372
:100EF000020E445C036A400F016E000E032203C021
:100F000049F0036A44502B0FE96E000E0320EA6E8D
:100F1000EFCF4AF049C0EAFF01C0E9FF4AC0EFFF46
:100F2000442AE3D7020E446E486A400E476EE5D667
:100F300002C046F001C045F045C001F046C002F0D5
:100F4000000CEA6A4C0EE96EEF500EE00F0E016ED7
:100F5000006A002EFED7012EFBD78F0E006E002EEA
:100F6000FED70000EF2EF2D7000C4A6A4B6A4B50B6
:100F7000435CD8A0CBD004E142504A5CD8B0C6D084
:100F8000355204E0365202E037522AE1492C01D0B2
:100F900003D04950020803E1936A45C08AFF4950D3
:100FA000030803E1926A45C089FF44C04CF0C9DFE1
:100FB0004A2AD8B44B2A492C02D0010E356E49502A
:100FC000020802E1010E366E4950030802E1010EEB
:100FD000376E42504A5C04E143504B5C01E196D0CD
:100FE000352C01D005D0362C01D002D0372C2AD098
:100FF000492C01D003D04950020803E1936A46C04E
:101000008AFF4950030803E1926A46C089FF44C041
:101010004CF097DF4A2AD8B44B2A492C02D0020E52
:10102000356E4950020802E1020E366E495003083F
:1010300002E1020E376E42504A5C04E143504B5CC1
:1010400001E164D03550020806E03650020803E0A2
:10105000375002082AE1492C01D003D04950020838
:1010600003E1936A47C08AFF4950030803E1926A8B
:1010700047C089FF44C04CF064DF4A2AD8B44B2AE9
:10108000492C02D0030E356E4950020802E1030ECE
:10109000366E4950030802E1030E376E42504A5C37
:1010A00004E143504B5C01E131D03550030806E0C8
:1010B0003650030803E03750030827E1492C01D0DC
:1010C00003D04950020803E1936A48C08AFF49509F
:1010D000030803E1926A48C089FF44C04CF031DF45
:1010E0004A2AD8B44B2A492C01D0356A4950020803
:1010F00001E1366A4950030801E1376A42504A5C0F
:1011000004E143504B5C01E101D031D74B6A4A6A9C
:10111000936A8A6A926A896A660E2B6E000CF86A74
:10112000D09E088EEA6AE96AC150C00B0F09C16EF1
:10113000070EB46E1F6A236A256A266A356A366A04
:10114000376A020E3A6E120E3B6E000E936E926E6E
:10115000936A8A6A926A896A2FD51DDD34D51A523C
:10116000D8B4FAD01DA2F8D0010E406E426A2B0E00
:10117000416E446A0A0E436E90D5186AF2BE188E0C
:10118000F29E010E556E020E566EFAEC03F018BE7A
:10119000F28E2C50310823E12B50670820E1030E1A
:1011A0003C6E060E3D6E0C0E3E6E090E3F6E010E3D
:1011B000396E98DE02C041F001C040F002C043F039
:1011C00001C042F03BC044F03CC045F03DC046F099
:1011D0003EC047F03FC048F039C049F0C6DE2C5051
:1011E000310823E12B50640820E1300E3C6E600E84
:1011F0003D6EC00E3E6E900E3F6E020E396E72DE78
:1012000002C041F001C040F002C043F001C042F012
:101210003AC044F03CC045F03DC046F03EC047F007
:101220003FC048F039C049F0A0DE2C50310823E11E
:101230002B506B0820E1030E3C6E060E3D6E0C0E2B
:101240003E6E090E3F6E030E396E4CDE02C041F059
:1012500001C040F002C043F001C042F03AC044F087
:101260003CC045F03DC046F03EC047F03FC048F0AE
:1012700039C049F07ADE2C50320823E12B50670840
:1012800020E1090E3C6E0C0E3D6E060E3E6E030E06
:101290003F6E010E396E26DE02C041F001C040F003
:1012A00002C043F001C042F03BC044F03CC045F0F6
:1012B0003DC046F03EC047F03FC048F039C049F05D
:1012C00054DE2C50320823E12B50640820E1900EAC
:1012D0003C6EC00E3D6E600E3E6E300E3F6E020ED6
:1012E000396E00DE02C041F001C040F002C043F0A0
:1012F00001C042F03AC044F03CC045F03DC046F069
:101300003EC047F03FC048F039C049F02EDE2C50B7
:10131000320822E12B506B081FE1090E3C6E0C0EC7
:101320003D6E060E3E6E030E3F6E396EDBDD02C073
:1013300041F001C040F002C043F001C042F03AC0A9
:1013400044F03CC045F03DC046F03EC047F03FC0D1
:0C13500048F039C049F009DE02D7030064
:020000040030CA
:0E0000003C0E3E1E008381000FC00FE00F403B
:00000001FF
;PIC18F4550
;CRC=EB9F  CREATED="13-sep-12 17:59"
